:020000040800F2
:1000000010040020D5000008E7090008E5090008F1
:1000100000000000000000000000000000000000E0
:10002000000000000000000000000000EB090008D4
:100030000000000000000000E9090008ED090008C8
:10004000E7000008E7000008E7000008E7000008F4
:10005000E7000008E7000008E7000008E7000008E4
:1000600000000000E7000008E7000008E7000008C3
:10007000E7000008E7000008E7000008E7000008C4
:10008000E7000008E7000008E7000008E7000008B4
:1000900000000000E7000008E7000008E700000893
:1000A000E7000008E7000008E7000008E700000894
:1000B000E7000008E7000008000000000000000062
:1000C0000348854600F03CF800480047B50A0008A0
:1000D000100400200448804704480047FEE7FEE77C
:1000E000FEE7FEE7FEE7FEE7410A0008C100000860
:1000F00030B50B46014600202022012409E00D46C0
:10010000D5409D4205D31D469540491B2546954047
:1001100040191546521E002DF1DC30BDD2B201E06F
:100120000270401C491EFBD270470022F6E710B552
:1001300013460A4604461946FFF7F0FF204610BD55
:10014000064C0125064E05E0E36807CC2B430C3C2A
:1001500098471034B442F7D3FFF7B6FF300C0008CD
:10016000500C000870B5044600F0B4F80546601C59
:1001700002D004484068241800F0ACF8401BA042AC
:10018000FAD370BD00000020F0B5002388E0012202
:100190009A409446144022007ED04C68022C01D034
:1001A000122C0CD1DC08A40027183C6A5D07ED0E68
:1001B0000F26AE40B4430E69AE4026433E6205684A
:1001C0005E000324B4400F79A543BF07BF0FB740BB
:1001D0002F4307604D68012D05D0022D03D0112D4E
:1001E00001D0122D0ED18568CF68A543B7402F43AB
:1001F000876047686546AF430D79ED06ED0F9D407A
:100200003D434560C568A5438C68B4402C43C46039
:100210004C68E40043D59D08244CAD002F193C6E7A
:100220009D07EE0E0F25B540AC4305252D07A842CE
:1002300001D100250FE01E4DA84201D101250AE0A1
:100240001C4DA84201D1022505E01B4DA84201D159
:10025000032500E00525B5402543144C3D66134DAC
:1002600080352E684F689643FF0300D516432E60F5
:100270006E684F689643BF0300D516436E602568CD
:100280004E689543F60200D51543256065684E68B3
:100290009543B60202D500E001E0154365605B1CA2
:1002A0000A681446DA4000D071E7F0BD0018024039
:1002B0000004005000080050000C00500069084085
:1002C00000D001207047002A01D08161704781620F
:1002D000704700000148806870470000000000205F
:1002E00002488168426889188160704700000020D8
:1002F00010B50848002401688215114301602046AA
:1003000000F00AF8002801D0012401E000F028F8EC
:10031000204610BD0020024070B50F4E00247168C9
:100320000546002915D07D20C000FFF7E1FE0146FB
:100330000A480068FFF7DCFE00F03CFB002808D10B
:10034000042D06D200222946401E00F01FF8356019
:1003500000E00124204670BD000000200C000020B9
:1003600008B5094801680122114301600068104086
:10037000009005484038C26B01040A43C263C06B59
:100380000840009008BD00004010024010B500F089
:100390005FFB10BD10B50F4C216803225202914340
:1003A00001432160C11FFF39FA390ED10A480621E5
:1003B000006848430949FFF79BFE401C02E0002803
:1003C00005D0401E61694905F9D4002010BD032005
:1003D00010BD0000007000400C00002040420F00E3
:1003E000F8B50F46060043D04D4D28684007400F32
:1003F000B84213D22868C008C00038432860FFF70D
:1004000069FF044605E0FFF765FF011B454881428F
:1004100061D828684007400FB842F4D13068424C98
:1004200081070DD5400704D5A068072109030843BB
:10043000A060A0680F2109028843B1680843A0604A
:100440003078C00732D0706801280AD002280BD05B
:1004500000280FD03449403103280ED0C9698907DC
:1004600004E02168890301E021688901002906DB95
:100470000120F8BD21684905F8E7096AEFE7A1689E
:10048000C908C9000143A160FFF724FF009006E0FE
:10049000FFF720FF0099411A224881421BD8A0682B
:1004A000382108407168C9008842F1D128684007A6
:1004B000400FB84217D91A480168C908C900394322
:1004C0000160FFF707FF054607E0FFF703FF411B49
:1004D0001448814201D90320F8BD11480068400743
:1004E000400FB842F1D13078400706D5A068072107
:1004F00009038843F1680843A06000F01DF8A16873
:100500003C2289091140094A515CC906C90EC840FC
:100510000749086007480068FFF7FEFEF8BD0000C5
:10052000002002408813000000100240F00B000879
:100530000C0000200000002010B5204CA068204ACC
:100540008006400F16D0A0688006410F5010012988
:100550000FD0A1688906490F022912D0A068800631
:10056000400F042823D0A0688006400F032821D024
:10057000002010BD206801218004400F81401046FA
:1005800012E0E1688B07E1689B0F4906490F491C9F
:10059000032B00D01046FFF7ABFDE1684904490E7C
:1005A0004843E168490F491CFFF7A2FD10BD012037
:1005B000C00310BD7D20000210BD000000100240ED
:1005C0000024F400F8B504007ED020783827C00756
:1005D000EF4D002846D0A868E96838408907890FA0
:1005E000102802D008280BD001E0032908D00120F0
:1005F0006268000482420AD129680143296015E03B
:10060000286880032ED560680028DDD02AE0052305
:1006100001211B0489049A422A6802D10A432A60F4
:10062000EAE782432A6028688843286060680028D7
:100630000CD0FFF74FFE064604E0FFF74BFE801B91
:10064000642873D828688003F7D50BE0FFF742FED3
:10065000064604E0FFF73EFE801B6428F1D82868B8
:100660008003F7D42078800769D5A868E968384006
:100670008A070721920FC902102802D0002813D040
:1006800001E0022A10D0E068002846D0286888439C
:100690002169084328602868FF2101310843286048
:1006A000FFF718FE06462CE02A68520502D5E268DC
:1006B000002A89D06A687F231B029A4363691B0260
:1006C0001A436A60002800E08DE00ED12868884354
:1006D000216908432860286801218004400F814077
:1006E000AC48FFF705FDAC490860AC480068FFF76F
:1006F00013FE002877D122E0FFF7ECFD801B0228D3
:100700009FD828684005F7D568687F21090288438B
:10071000616909020843686011E02968FF2001301F
:1007200081432960FFF7D6FD064605E098E0FFF714
:10073000D1FD801B022884D828684005F7D4207892
:10074000974E00072ED5A8688006400F03280AD0D0
:10075000A0690028306A16D0012108433062FFF7F3
:10076000B9FD07460BE0306A80071BD5A069002859
:100770009FD017E0FFF7AEFDC01B022870D8306A8B
:100780008007F7D50EE0400840003062FFF7A2FD79
:10079000074604E0FFF79EFDC01B022860D8306AC0
:1007A0008007F7D4207840076CD5A868002780061A
:1007B000400F042818D0E86BC00008D4E96B012072
:1007C00000070143E963E96B014001270091754887
:1007D0000168C90519D40168821511430160FFF74A
:1007E00079FD00900DE083E0F06980074AD5A068AC
:1007F00000287DD046E0FFF76DFD0099401A0228E1
:100800002ED868480068C005F5D5A168012910D028
:1008100004200529F16911D049084900F161F16905
:100820008143F161A068002816D0FFF753FD0090C6
:100830000EE0F06901210843F061F3E70143F16143
:10084000F7E7FFF747FD0099411A574881426FD8F3
:10085000F0698007F5D50EE0FFF73CFD009007E05A
:1008600066E0FFF737FD0099411A4F4881425FD893
:10087000F0698007F5D4002F04D0E86B0121090747
:100880008843E863E06900287FD0A9688906490F9A
:10089000022953D001263606022828680DD0B0431D
:1008A0002860E86880088000E860E8683F49084000
:1008B000E860FFF70FFD04463CE0B0432860FFF717
:1008C00009FD074604E0FFF705FDC01B02282FD8ED
:1008D00028688001F7D4616A206AA26A0843E16A45
:1008E000120211430843216B0843616B084300E087
:1008F00049E0E9682E4A11400843E860286830431F
:100900002860E868012109070843E860FFF7E2FC76
:10091000044604E0FFF7DEFC001B022808D8286824
:100920008001F7D531E0FFF7D5FC001B022801D983
:100930000320F8BD28688001F5D426E00128F8D00E
:10094000E868226A8107890F91421CD17021626A8E
:100950000140914217D17F21A26A0902014012028F
:10096000914210D11F214904E26A014091420AD10B
:1009700007214906226B0140914204D1400F616B6F
:100980004007884201D00120F8BD0020F8BD0000DA
:10099000001002400024F4000C00002000000020A1
:1009A000401002400070004088130000FFFFFEEE80
:1009B0008C80C111094910B5401E884201D901201F
:1009C00010BD074C60610321081F00F041F80020B2
:1009D000A06107202061002010BD0000FFFFFF0084
:1009E00000E000E0FEE770477047704710B5FFF782
:1009F00077FC10BD10B592B038216846FFF795FB23
:100A0000002401200E940F94109440021194FFF7DB
:100A1000C1FC02200090C001039040200590049486
:100A200007946846FFF7CEFD07200E900F941094B0
:100A3000002111940EA8FFF7D3FC12B010BD0000E6
:100A400001200249C00688607047000000ED00E008
:100A50008307FF22DB0E9A408907090E9940002880
:100A600008DB830809489B001B181868904308435B
:100A7000186070470007000F0838830804489B007F
:100A80001B18D86990430843D861704700E400E020
:100A900000ED00E002E008C8121F08C1002AFAD1E8
:100AA00070477047002001E001C1121F002AFBD1EE
:100AB0007047000090B0FFF71BFCFFF79BFF14216D
:100AC0006846FFF732FB484C606B01263043606399
:100AD000606BA714304000970590002001900290B1
:100AE000052069460007FFF74FFB002505273F0754
:100AF000012109033846FFF7E1FB0128F8D1FF2067
:100B0000F5306D1CFFF72EFB606B30436063606B4C
:100B1000C007C00F0090616B022001436163616BED
:100B200001400091002DE3D0012D05D0022D1FD0F2
:100B3000032D3DD00025DBE714216846FFF7F5FAC9
:100B4000FF21002201313846FFF7BDFBFF200130B5
:100B5000009000200290019669463846FFF714FB8A
:100B60008020009000200190029069461F4819E003
:100B7000142105A8FFF7D9FA002280211B48FFF7AE
:100B8000A2FB8020059000200790069605A9174833
:100B9000FFF7FAFAFF200130059000200690079039
:100BA00005A93846FFF7F0FA6420FFF7DBFA9FE764
:100BB00014210AA8FFF7B9FA01221502294638467E
:100BC000FFF781FB0A9500250B960AA938460C957C
:100BD000FFF7DAFA80200A900B950AA90C950348D2
:100BE000FFF7D2FAE0E700000010024000040050D6
:100BF00000000000000000000000000000000000F5
:100C000000000000000000000000000000000000E4
:100C100001000000020000000300000004000000CA
:100C200006000000070000000800000009000000A6
:100C3000500C00080000002010000000940A00087A
:100C4000600C00081000002000040000A40A000846
:100C50000400000001000000000000000024F40077
:04000005080000C12E
:00000001FF
